:020000040800F2
:1000000000500020710F0008790E0008810E0008D2
:10001000890E0008910E0008990E000800000000EB
:10002000000000000000000000000000A10E000819
:10003000AD0E000800000000B90E0008C50E000853
:10004000B90F0008B90F0008B90F0008B90F000870
:10005000B90F0008B90F0008B90F0008B90F000860
:10006000B90F0008B90F0008B90F0008B90F000850
:10007000B90F0008B90F0008B90F0008B90F000840
:10008000B90F0008B90F0008B90F0008B90F000830
:10009000D10E0008B90F0008B90F0008B90F000809
:1000A000B90F0008B90F0008B90F0008B90F000810
:1000B000B90F0008B90F0008B90F0008B90F000800
:1000C000B90F0008B90F0008B90F0008B90F0008F0
:1000D000B90F0008E50E0008B90F0008B90F0008B5
:1000E000B90F0008B90F0008B90F000800000000A0
:1000F0000000000000000000000000000000000000
:0C01000000000000000000005FF808F1A3
:10010C0010B5054C237833B9044B13B10448AFF345
:10011C0000800123237010BD5C0000200000000053
:10012C006C42000808B5034B1BB103490348AFF3FD
:10013C00008008BD00000000600000206C42000838
:10014C0080B485B000AFF860B9601346FB71FB68F2
:10015C00B3F5007F0ED1FB79012B0BD9BB681A7854
:10016C00204B1A70BB685A781F4B1A701F4B012218
:10017C001A7032E0FB6840F2012293420ED1FB79F7
:10018C00012B0BD9BB681A78194B1A70BB685A78BB
:10019C00184B1A70154B01221A701EE0FB6840F2C6
:1001AC00022293420AD1FB79002B07D0BB681A7844
:1001BC00114B1A700D4B01221A700EE0FB68B3F54F
:1001CC00987F0AD1FB79002B07D0BB681A780B4BB0
:1001DC001A70064B01221A70FFE700BF1437BD4698
:1001EC0080BC704778000020790000207E00002041
:1001FC007A0000207B0000207C0000207D00002085
:10020C0080B58CB000AF78607B681B68154A934250
:10021C0025D107F10C0307F114020021786801F0D5
:10022C0034FA0346002B1AD10F4B1B78DBB2012B8F
:10023C000BD17B6940F2011293420FD13B7B012B16
:10024C000CD1094B02221A7009E07B697A6AD2B28E
:10025C0007F10C011846FFF773FF00E000BF3037C1
:10026C00BD4680BD006400409700002080B582B080
:10027C0000AF7860064A7B681360054B1B6801224F
:10028C000449184602F099FD00BF0837BD4680BDF1
:10029C00800000207F00002080B5CAB002AF07F5B7
:1002AC009073A3F58E73186007F59073A3F58E7396
:1002BC001B681A68BA4B1B681B689A4240F08C8208
:1002CC00B84B1A78B84B1A70B84B1B680133B74A45
:1002DC001360B74B1B78002B03D1B24B1A78B54B7C
:1002EC001A70B34B1B78052B1BD90023C7F81C3194
:1002FC0010E0D7F81C310133AF4AD35CD9B2AE4A07
:10030C00D7F81C3113440A461A70D7F81C31013344
:10031C00C7F81C31D7F81C31042BEADDA44B05229D
:10032C001A70A34B1B785A1CD1B2A14A11701A46F1
:10033C009C4B1978A04B99549D4B1B78012B1CD1CD
:10034C009D4B1B78DBB2712B17D09B4B1B78DBB210
:10035C00412B12D0984B1B78DBB2402B0DD0964B17
:10036C001B78DBB2552B08D0934B1B78DBB2EE2BF2
:10037C0003D08F4B00221A7027E28F4B1B78DBB215
:10038C00712B59D18A4B1B78022B55D98A4B5B7830
:10039C00DBB287F8D430884B9B78DBB287F8D5304A
:1003AC004FF4E263C7F8D8300023C7F8E4300023D9
:1003BC00C7F8E0300223C7F8E830002387F8EC30A8
:1003CC0007F1D00307F1D40207F1D8017B4801F003
:1003DC0059F803461A467A4B1A7097F8D4301A46D5
:1003EC0097F8D53007F10C0000931346754A40215D
:1003FC0003F072FAC7F80401D7F804319AB207F186
:10040C000C010A23704802F04DFC0023C7F8183188
:10041C000AE0694AD7F81831134400221A70D7F849
:10042C0018310133C7F81831D7F81831022BF0DD29
:10043C005F4B00221A70C8E15F4B1B78DBB2412B7B
:10044C0059D15B4B1B78022B55D95B4B5B78DBB2DC
:10045C0087F8B430584B9B78DBB287F8B53040F254
:10046C000143C7F8B8300023C7F8C4300023C7F8DD
:10047C00C0300223C7F8C830002387F8CC3007F10E
:10048C00B00307F1B40207F1B8014C4800F0FAFFD1
:10049C0003461A464A4B1A7097F8B4301A4697F826
:1004AC00B53007F10C0000931346484A402103F085
:1004BC0013FAC7F80001D7F800319AB207F10C0112
:1004CC000A23414802F0EEFB0023C7F814310AE07E
:1004DC00394AD7F81431134400221A70D7F8143162
:1004EC000133C7F81431D7F81431022BF0DD304B3F
:1004FC0000221A7069E1304B1B78DBB2402B7CD1A7
:10050C002B4B1B78032B78D92B4B5B78DBB287F802
:10051C009430294B9B78DBB287F89530264BDB78EF
:10052C00DBB287F896304FF48063C7F8983000231D
:10053C00C7F8A4300023C7F8A0300323C7F8A830AD
:10054C00002387F8AC3007F1900307F1940207F110
:10055C0098011A4800F096FF03461A46184B1A7079
:10056C0097F89430194697F8953097F8962007F13C
:10057C000C00019200930B46154A402103F0ACF994
:10058C00C7F8FC00D7F8FC309AB207F10C010A232B
:10059C000D4802F087FB0023C7F8103125E000BF9F
:1005AC00800000207F0000208700002088000020B1
:1005BC00960000208C000020900000209C00002061
:1005CC0086000020844200080C010020BC42000878
:1005DC00EC420008834AD7F81031134400221A70F9
:1005EC00D7F810310133C7F81031D7F81031032B7D
:1005FC00F0DD7D4B00221A70E7E07A4B1B78DBB202
:10060C00552B75D1784B1B78032B71D9754B5B78B7
:10061C00DAB2764B1A70734B9B78DAB2744B1A7051
:10062C00704BDB7887F8FB30704B1B78DAB2704B71
:10063C001B78DBB21344DBB297F8FB209A4240D113
:10064C006A4B1B78DBB287F87430694B1B78DBB2D2
:10065C0087F87530002387F876304FF48063BB67DA
:10066C000023C7F884300023C7F880300323C7F871
:10067C008830002387F88C3007F1700307F174027F
:10068C0007F178015B4800F0FDFE03461A465A4B11
:10069C001A7097F874301A4697F8753007F10C00F9
:1006AC0000931346554A402103F016F9C7F8F4009D
:1006BC00D7F8F4309AB207F10C010A23504802F033
:1006CC00F1FA0023C7F80C310AE0464AD7F80C318E
:1006DC00134400221A70D7F80C310133C7F80C31CF
:1006EC00D7F80C31032BF0DD3F4B00221A706CE075
:1006FC003C4B1B78DBB2EE2B67D13B4B1B78052BAD
:10070C0063D9384B5B78DBB287F85030354B9B782C
:10071C00DBB287F85130334BDB78DBB287F85230E1
:10072C00304B1B79DBB287F853302E4B5B79DBB245
:10073C0087F854304FF4A063BB6500237B6600231D
:10074C003B660523BB66002387F86C3007F14C032E
:10075C0007F1500207F15801264800F093FE0346BA
:10076C001A46254B1A7097F85030194697F85130A5
:10077C001B0297F85220134307F10C0000930B4611
:10078C00204A402103F0A8F8C7F8F000D7F8F03061
:10079C009AB207F10C010A23194802F083FA0023DC
:1007AC00C7F808310AE00F4AD7F808311344002281
:1007BC001A70D7F808310133C7F80831D7F8083167
:1007CC00052BF0DD084B00221A700F4B1B68012221
:1007DC000E49184602F0F1FA00BF07F59077BD46B6
:1007EC0080BD00BF900000209600002084000020F7
:1007FC00850000209C000020860000202843000873
:10080C000C0100205C430008800000207F000020C9
:10081C0080B58CB000AF78600023FB6100233B6295
:10082C0001237B620023BB600023FB6000233B6140
:10083C0000237B610023BB610123BB620E23FB629F
:10084C0007F108031946786800F00FFD0346002BEA
:10085C0001D000F0F3F9786800F0D0FD0346002BCE
:10086C0001D000F0EBF90221786801F02FF8034673
:10087C00002B01D000F0E2F900BF3037BD4680BD3F
:10088C0080B58CB000AF78600B46FB701346BB7024
:10089C00FB783B74BB787B744FF4E2637B61002381
:1008AC003B620023FB6102237B62002387F8283024
:1008BC0000F0D6FBF86206E000F0D2FB0246FB6AC1
:1008CC00D31A022B0FD8786800F0ABFE0346002B2E
:1008DC00F2D007F10C0307F1100207F1140178684C
:1008EC0000F0D0FD00E000BF3037BD4680BD80B5C4
:1008FC008AB000AF786001233B7302233B61002375
:10090C00FB610023BB6101233B62002387F8243089
:10091C0007F1080307F10C0207F11001786800F0E9
:10092C00B1FD00BF2837BD4680BD000080B582B048
:10093C0000AF00F03DFB00F08FF800F05DF900F027
:10094C00D1F800F005F900F02DF93A48FFF78EFCCC
:10095C003948FFF75DFF394B1B78DBB2002B0BD10D
:10096C003548FFF7C4FF00F07BFB0346344A1360A5
:10097C00324B01221A7017E0304B1B78DBB2012B83
:10098C0010D100F06DFB02462D4B1B68D31AC82BFF
:10099C000AD92948FFF7ABFF00F062FB0346284A4F
:1009AC00136001E0254B1B78244B1B78DBB2022B28
:1009BC00D1D1244B1B78DBB2012B1ED1214B002251
:1009CC001A70AA233B6000233B7102237B701E4BE1
:1009DC001B78DBB2BB701D4B1B78DBB2FB707A78DB
:1009EC00BB781344DAB2FB781344DBB23B71394663
:1009FC000A2305220F4802F055F900F031FB02469C
:100A0C00134B1B68D31AC82BA5D900F029FB03463E
:100A1C000F4A13600F4B1B780133DAB20D4B1A706F
:100A2C00064B1B78DBB20B4A127819460248FFF7CB
:100A3C0027FF90E7C40000209C00002097000020B6
:100A4C00980000207E0000207A0000207B0000200F
:100A5C00540100205801002080B590B000AF07F180
:100A6C00180328220021184602F06CFF3B1D0022BF
:100A7C001A605A609A60DA601A610123BB614FF404
:100A8C008033FB6100233B620123BB6202237B6347
:100A9C004FF48033BB634FF4C013FB6307F11803AF
:100AAC00184601F09FFC0346002B01D000F0C6F85D
:100ABC000F237B600223BB600023FB604FF4806339
:100ACC003B6100237B613B1D0221184601F00CFFAA
:100ADC000346002B01D000F0B1F800BF4037BD46F3
:100AEC0080BD000080B500AF174B184A1A60164B3A
:100AFC0009225A60144B00229A60134B0022DA60D0
:100B0C00114B4FF430221A610F4B4FF400125A6103
:100B1C000D4B00221A760C4B00225A760A4B0022FF
:100B2C009A76094B0122DA76074B00221A77064B8C
:100B3C0000225A77044800F09DFA0346002B01D09E
:100B4C0000F07CF800BF80BD9C00002000640040D9
:100B5C0080B500AF114B124A1A60104B4FF4E132C2
:100B6C005A600E4B00229A600C4B0022DA600B4B41
:100B7C0000221A61094B0C225A61084B00229A611F
:100B8C00064B0022DA61054802F03CF80346002BC4
:100B9C0001D000F053F800BF80BD00BFC40000209E
:100BAC000038014080B500AF114B124A1A60104B4F
:100BBC004FF4E1325A600E4B00229A600C4B00222B
:100BCC00DA600B4B00221A61094B0C225A61084B5C
:100BDC0000229A61064B0022DA61054802F012F8F5
:100BEC000346002B01D000F029F800BF80BD00BFE8
:100BFC000C0100200044004080B483B000AF0E4BC9
:100C0C009B690D4A43F0200393610B4B9B6903F0E6
:100C1C0020037B607B68084B9B69074A43F0040305
:100C2C009361054B9B6903F004033B603B6800BF79
:100C3C000C37BD4680BC70470010024080B400AF3A
:100C4C0072B600BF00BFFDE780B485B000AF154B96
:100C5C009B69144A43F001039361124B9B6903F0A7
:100C6C000103BB60BB680F4BDB690E4A43F080533A
:100C7C00D3610C4BDB6903F080537B607B680A4BC0
:100C8C005B68FB60FB6823F0E063FB60FB6843F090
:100C9C000073FB60044AFB68536000BF1437BD4609
:100CAC0080BC7047001002400000014080B588B045
:100CBC0000AF786007F1100300221A605A609A6046
:100CCC00DA607B681B68204A934239D11F4BDB6981
:100CDC001E4A43F00073D3611C4BDB6903F00073B5
:100CEC00FB60FB68194B9B69184A43F00403936142
:100CFC00164B9B6903F00403BB60BB684FF40063A5
:100D0C003B6100237B610023BB6107F11003194693
:100D1C000F4801F0E3F94FF480533B6102237B61F0
:100D2C000323FB6107F110031946094801F0D6F9BA
:100D3C0000220021142001F0E8F8142001F001F940
:100D4C0000BF2037BD4680BD00640040001002404B
:100D5C000008014080B58AB000AF786007F1180335
:100D6C0000221A605A609A60DA607B681B683B4A02
:100D7C0093423AD13A4B9B69394A43F4804393618D
:100D8C00374B9B6903F480437B617B69344B9B69D4
:100D9C00334A43F004039361314B9B6903F0040322
:100DAC003B613B694FF40073BB610223FB6103237E
:100DBC007B6207F1180319462A4801F08FF94FF4AA
:100DCC008063BB610023FB6100233B6207F11803C6
:100DDC001946244801F082F900220021252001F057
:100DEC0094F8252001F0ADF834E07B681B681E4AAE
:100DFC0093422FD11A4BDB69194A43F40033D36168
:100E0C00174BDB6903F40033FB60FB68144B9B69E5
:100E1C00134A43F004039361114B9B6903F00403E1
:100E2C00BB60BB680423BB610223FB6103237B62B1
:100E3C0007F1180319460B4801F050F90823BB6160
:100E4C000023FB6100233B6207F118031946054898
:100E5C0001F044F900BF2837BD4680BD0038014081
:100E6C0000100240000801400044004080B400AF74
:100E7C0000BFFDE780B400AF00BFFDE780B400AF5A
:100E8C0000BFFDE780B400AF00BFFDE780B400AF4A
:100E9C0000BFFDE780B400AF00BFBD4680BC70470B
:100EAC0080B400AF00BFBD4680BC704780B400AFBB
:100EBC0000BFBD4680BC704780B500AF00F0BEF8E7
:100ECC0000BF80BD80B500AF024800F024FD00BF1C
:100EDC0080BD00BF9C00002080B500AF024801F02F
:100EEC0091FF00BF80BD00BFC400002080B586B05C
:100EFC0000AF7860144A154BD31A7B617B693B6158
:100F0C00134B1B68002B02D1114B124A1A60104B69
:100F1C001A687B6813443A699A4207D202F01AFDA8
:100F2C0003460C221A604FF0FF3309E0084B1B6894
:100F3C00FB60074B1A687B681344054A1360FB6817
:100F4C0018461837BD4680BD005000200004000034
:100F5C005C010020B002002080B400AF00BFBD4691
:100F6C0080BC7047FFF7F8FF0B480C490C4A002374
:100F7C0002E0D458C4500433C4188C42F9D3094A43
:100F8C00094C002301E013600432A242FBD302F0AF
:100F9C00E7FCFFF7CBFC7047000000205C00002052
:100FAC00F44300085C000020AC020020FEE70000C7
:100FBC0080B500AF084B1B68074A43F01003136061
:100FCC00032000F097FF0F2000F008F8FFF73CFE1D
:100FDC000023184680BD00BF0020024080B582B0BF
:100FEC0000AF7860124B1A68124B1B7819464FF4FD
:100FFC007A73B3FBF1F3B2FBF3F3184600F0AFFFD7
:10100C000346002B01D001230EE07B680F2B0AD87E
:10101C00002279684FF0FF3000F077FF064A7B68BA
:10102C001360002300E0012318460837BD4680BD3D
:10103C0000000020080000200400002080B400AF55
:10104C00054B1B781A46054B1B681344034A136067
:10105C0000BFBD4680BC7047080000206001002026
:10106C0080B400AF024B1B681846BD4680BC70476D
:10107C006001002080B584B000AF78607B68002BE5
:10108C0001D10123EDE07B6893F82030DBB2002B1B
:10109C0002D17868FFF70AFE7B681B681A687B68C8
:1010AC001B6842F001021A60FFF7DAFFF86012E0E9
:1010BC00FFF7D6FF0246FB68D31A0A2B0BD97B68C5
:1010CC005B6A43F400327B685A627B68052283F8C2
:1010DC0020200123C5E07B681B685B6803F00103DB
:1010EC00002BE5D07B681B681A687B681B6822F0B4
:1010FC0002021A60FFF7B4FFF86012E0FFF7B0FFCE
:10110C000246FB68D31A0A2B0BD97B685B6A43F443
:10111C0000327B685A627B68052283F82020012309
:10112C009FE07B681B685B6803F00203002BE5D132
:10113C007B681B7E012B08D17B681B681A687B6857
:10114C001B6842F080021A6007E07B681B681A6813
:10115C007B681B6822F080021A607B685B7E012B27
:10116C0008D17B681B681A687B681B6842F04002D8
:10117C001A6007E07B681B681A687B681B6822F0A2
:10118C0040021A607B689B7E012B08D17B681B6830
:10119C001A687B681B6842F020021A6007E07B68C3
:1011AC001B681A687B681B6822F020021A607B6837
:1011BC00DB7E012B08D17B681B681A687B681B6877
:1011CC0022F010021A6007E07B681B681A687B68C3
:1011DC001B6842F010021A607B681B7F012B08D140
:1011EC007B681B681A687B681B6842F008021A60EF
:1011FC0007E07B681B681A687B681B6822F0080292
:10120C001A607B685B7F012B08D17B681B681A68AE
:10121C007B681B6842F004021A6007E07B681B685D
:10122C001A687B681B6822F004021A607B689A6853
:10123C007B68DB681A437B681B691A437B685B69B4
:10124C0042EA03017B685B685A1E7B681B680A4391
:10125C00DA617B6800225A627B68012283F82020C5
:10126C00002318461037BD4680BD80B487B000AF50
:10127C00786039607B681B687B617B6893F82030F1
:10128C00FB74FB7C012B03D0FB7C022B40F0AA806F
:10129C007B69D3F8003243F001027B69C3F800226A
:1012AC003B685B6903F01F03012202FA03F3FB6046
:1012BC007B69D3F81C22FB68DB431A407B69C3F8BB
:1012CC001C223B68DB69002B23D17B69D3F80C22F1
:1012DC00FB68DB431A407B69C3F80C223B68DB6874
:1012EC0019043B685B689BB23A68526919437B6985
:1012FC00483243F832103B689B6819043B681B6802
:10130C009AB23B685B690A4379694833DB000B444A
:10131C005A603B68DB69012B22D17B69D3F80C2224
:10132C00FB681A437B69C3F80C223B681B681904E1
:10133C003B685B689BB23A68526919437B694832D7
:10134C0043F832103B689B6819043B68DB689AB21F
:10135C003B685B690A4379694833DB000B445A608C
:10136C003B689B69002B09D17B69D3F80422FB688D
:10137C00DB431A407B69C3F8042207E07B69D3F88E
:10138C000422FB681A437B69C3F804223B681B697F
:10139C00002B09D17B69D3F81422FB68DB431A407C
:1013AC007B69C3F8142207E07B69D3F81422FB682D
:1013BC001A437B69C3F814223B681B6A012B07D1C3
:1013CC007B69D3F81C22FB681A437B69C3F81C2287
:1013DC007B69D3F8003223F001027B69C3F8002249
:1013EC00002306E07B685B6A43F480227B685A62C8
:1013FC00012318461C37BD4680BC704780B584B0AD
:10140C0000AF78607B6893F82030DBB2012B2ED1D3
:10141C007B68022283F820207B681B681A687B6833
:10142C001B6822F001021A60FFF71AFEF86012E046
:10143C00FFF716FE0246FB68D31A0A2B0BD97B6802
:10144C005B6A43F400327B685A627B68052283F83E
:10145C002020012312E07B681B685B6803F001030A
:10146C00002BE5D17B6800225A62002306E07B68E2
:10147C005B6A43F400227B685A62012318461037DA
:10148C00BD4680BD80B489B000AFF860B9607A60A9
:10149C003B60FB6893F82030FB77FB681B689B680C
:1014AC00BB61FB7F012B03D0FB7F022B40F0AD8097
:1014BC00BB6903F08063002B0AD1BB6903F00063A6
:1014CC00002B05D1BB6903F08053002B00F09580F5
:1014DC00BB691B0E03F003037B6101227B699A40FD
:1014EC003B681A60BB689B68002B0DD1BB681B68FE
:1014FC005A05BB68DB68F96809681A437B691833BD
:10150C001B010B441A600FE0BB685B68DA00BB6818
:10151C009B681A43BB68DB68F96809681A437B69E6
:10152C0018331B010B441A60FB681968BB681A69F5
:10153C007B6918331B010B4404331A60BB681B7D99
:10154C00012B11D1FB681A687B6918331B011344FA
:10155C0004331B68FA68116843F480727B69183392
:10156C001B010B4404331A607B6807331B781A0683
:10157C007B6806331B781B041A437B6805331B7886
:10158C001B0213437A68043212781046FA68116809
:10159C0043EA00027B691B010B4403F5C6731A6016
:1015AC007B6803331B781A067B6802331B781B0499
:1015BC001A437B6801331B781B0213437A68127839
:1015CC001046FA68116843EA00027B691B010B4460
:1015DC0003F5C4731A60FB681A687B6918331B0126
:1015EC0013441B68FA68116843F001027B691833D5
:1015FC001B010B441A6000230EE0FB685B6A43F48A
:10160C000012FB685A62012306E0FB685B6A43F434
:10161C008022FB685A62012318462437BD4680BCE1
:10162C00704780B485B000AF78600023FB607B68A6
:10163C0093F82030FB72FB7A012B02D0FB7A022B41
:10164C001DD17B681B689B6803F08063002B02D064
:10165C00FB680133FB607B681B689B6803F00063CD
:10166C00002B02D0FB680133FB607B681B689B6816
:10167C0003F08053002B02D0FB680133FB60FB6846
:10168C0018461437BD4680BC704780B487B000AF95
:10169C00F860B9607A603B60FB6893F82030FB75AA
:1016AC00FB7D012B03D0FB7D022B40F00381BB683B
:1016BC00002B0ED1FB681B68DB6803F00303002BC7
:1016CC0016D1FB685B6A43F40012FB685A62012373
:1016DC00F7E0FB681B681B6903F00303002B07D1C1
:1016EC00FB685B6A43F40012FB685A620123E8E072
:1016FC00FB681A68BB681B331B0113441B6803F09F
:10170C0004027B689A607B689B68002B0CD1FB6899
:10171C001A68BB681B331B0113441B685B0DC3F3B6
:10172C000A027B681A600BE0FB681A68BB681B3303
:10173C001B0113441B68DB0823F060427B685A6072
:10174C00FB681A68BB681B331B0113441B6803F04E
:10175C0002027B68DA60FB681A68BB681B331B01EA
:10176C00134404331B6803F00803002B03D07B687D
:10177C0008221A610BE0FB681A68BB681B331B015B
:10178C00134404331B6803F00F027B681A61FB6877
:10179C001A68BB681B331B01134404331B681B0AF8
:1017AC00DAB27B689A61FB681A68BB681B331B0151
:1017BC00134404331B681B0C9AB27B685A61FB6898
:1017CC001A68BB681B01134403F5DC731B68DAB29F
:1017DC003B681A70FB681A68BB681B01134403F55D
:1017EC00DC731B681A0A3B680133D2B21A70FB68AF
:1017FC001A68BB681B01134403F5DC731B681A0CD5
:10180C003B680233D2B21A70FB681A68BB681B01C2
:10181C00134403F5DC731B681A0E3B680333D2B216
:10182C001A70FB681A68BB681B01134403F5DE735E
:10183C001A683B680433D2B21A70FB681A68BB682A
:10184C001B01134403F5DE731B681A0A3B6805334E
:10185C00D2B21A70FB681A68BB681B01134403F5FB
:10186C00DE731B681A0C3B680633D2B21A70FB6825
:10187C001A68BB681B01134403F5DE731B681A0E50
:10188C003B680733D2B21A70BB68002B08D1FB68D7
:10189C001B68DA68FB681B6842F02002DA6007E01C
:1018AC00FB681B681A69FB681B6842F020021A610E
:1018BC00002306E0FB685B6A43F48022FB685A62F3
:1018CC00012318461C37BD4680BC704780B485B0D8
:1018DC0000AF786039607B6893F82030FB73FB7B3A
:1018EC00012B02D0FB7B022B09D17B681B68596949
:1018FC007B681B683A680A435A61002306E07B68E0
:10190C005B6A43F480227B685A62012318461437C1
:10191C00BD4680BC704780B58AB000AF78600023AC
:10192C007B627B681B685B693B627B681B685B68DE
:10193C00FB617B681B689B68BB617B681B68DB6811
:10194C007B617B681B681B693B617B681B689B69BF
:10195C00FB603B6A03F00103002B7CD0BB6903F0F6
:10196C000103002B23D07B681B6801229A60BB69A2
:10197C0003F00203002B03D0786800F083F916E023
:10198C00BB6903F00403002B04D07B6A43F40063AF
:10199C007B620CE0BB6903F00803002B04D07B6A6C
:1019AC0043F480537B6202E0786800F086F9BB69EF
:1019BC0003F48073002B24D07B681B684FF4807277
:1019CC009A60BB6903F40073002B03D0786800F0B5
:1019DC0062F916E0BB6903F48063002B04D07B6AC8
:1019EC0043F400537B620CE0BB6903F40063002BEF
:1019FC0004D07B6A43F480437B6202E0786800F099
:101A0C0065F9BB6903F48033002B24D07B681B6819
:101A1C004FF480329A60BB6903F40033002B03D07F
:101A2C00786800F041F916E0BB6903F48023002BC1
:101A3C0004D07B6A43F400437B620CE0BB6903F483
:101A4C000023002B04D07B6A43F480337B6202E0DA
:101A5C00786800F044F93B6A03F00803002B0CD0C3
:101A6C007B6903F01003002B07D07B6A43F40073EF
:101A7C007B627B681B681022DA603B6A03F004030C
:101A8C00002B0BD07B6903F00803002B06D07B687E
:101A9C001B680822DA60786800F02AF93B6A03F0C8
:101AAC000203002B09D07B681B68DB6803F003037F
:101ABC00002B02D07868FEF7A3FB3B6A03F04003CF
:101ACC00002B0CD03B6903F01003002B07D07B6A72
:101ADC0043F480637B627B681B6810221A613B6A4B
:101AEC0003F02003002B0BD03B6903F00803002B01
:101AFC0006D07B681B6808221A61786800F00AF926
:101B0C003B6A03F01003002B09D07B681B681B6930
:101B1C0003F00303002B02D0786800F0F2F83B6A64
:101B2C0003F40033002B0BD0FB6903F01003002BE4
:101B3C0006D07B681B6810225A60786800F0F3F8B6
:101B4C003B6A03F48033002B0BD0FB6903F00803D2
:101B5C00002B06D07B681B6808225A60786800F05E
:101B6C00EBF83B6A03F40043002B7BD0FB6903F0DA
:101B7C000403002B72D03B6A03F48073002B08D053
:101B8C00FB6803F00103002B03D07B6A43F00103D5
:101B9C007B623B6A03F40073002B08D0FB6803F0F4
:101BAC000203002B03D07B6A43F002037B623B6A87
:101BBC0003F48063002B08D0FB6803F00403002BB4
:101BCC0003D07B6A43F004037B623B6A03F400633B
:101BDC00002B43D0FB6803F07003002B3ED0FB6856
:101BEC0003F07003602B2BD0602B2ED8502B22D0FF
:101BFC00502B2AD8402B19D0402B26D8302B10D064
:101C0C00302B22D8102B02D0202B05D01DE07B6A64
:101C1C0043F008037B6219E07B6A43F010037B629C
:101C2C0014E07B6A43F020037B620FE07B6A43F095
:101C3C0040037B620AE07B6A43F080037B6205E031
:101C4C007B6A43F480737B6200E000BF7B681B6897
:101C5C009A697B681B6822F070029A617B681B682A
:101C6C0004225A607B6A002B08D07B685A6A7B6A14
:101C7C001A437B685A62786800F067F800BF28370F
:101C8C00BD4680BD80B483B000AF786000BF0C3718
:101C9C00BD4680BC704780B483B000AF786000BF95
:101CAC000C37BD4680BC704780B483B000AF786001
:101CBC0000BF0C37BD4680BC704780B483B000AF0A
:101CCC00786000BF0C37BD4680BC704780B483B0D1
:101CDC0000AF786000BF0C37BD4680BC704780B445
:101CEC0083B000AF786000BF0C37BD4680BC704736
:101CFC0080B483B000AF786000BF0C37BD4680BCA9
:101D0C00704780B483B000AF786000BF0C37BD461D
:101D1C0080BC704780B483B000AF786000BF0C37D4
:101D2C00BD4680BC704780B483B000AF786000BF04
:101D3C000C37BD4680BC704780B483B000AF786070
:101D4C0000BF0C37BD4680BC704780B483B000AF79
:101D5C00786000BF0C37BD4680BC704780B485B03E
:101D6C0000AF78607B6803F00703FB600C4BDB680B
:101D7C00BB60BA684FF6FF031340BB60FB681A02E6
:101D8C00BB68134343F0BF6343F40033BB60044AA6
:101D9C00BB68D36000BF1437BD4680BC704700BF22
:101DAC0000ED00E080B400AF044BDB681B0A03F0CD
:101DBC0007031846BD4680BC704700BF00ED00E02D
:101DCC0080B483B000AF0346FB7197F90730002B4A
:101DDC000BDBFB7903F01F02064997F907305B090F
:101DEC00012000FA02F241F8232000BF0C37BD4657
:101DFC0080BC704700E100E080B483B000AF0346C4
:101E0C003960FB7197F90730002B0ADB3B68DAB2BB
:101E1C000C4997F907301201D2B20B4483F8002316
:101E2C000AE03B68DAB20849FB7903F00F03043B84
:101E3C001201D2B20B441A7600BF0C37BD4680BCDF
:101E4C00704700BF00E100E000ED00E080B489B015
:101E5C0000AFF860B9607A60FB6803F00703FB61C0
:101E6C00FB69C3F10703042B28BF0423BB61FB6987
:101E7C000433062B02D9FB69033B00E000237B6192
:101E8C004FF0FF32BB6902FA03F3DA43BB681A4026
:101E9C007B699A404FF0FF317B6901FA03F3D94318
:101EAC007B680B40134318462437BD4680BC7047F3
:101EBC0080B582B000AF78607B68013BB3F1807F66
:101ECC0001D301230FE00A4A7B68013B53600F21C9
:101EDC004FF0FF30FFF790FF054B00229A60044B48
:101EEC0007221A60002318460837BD4680BD00BF84
:101EFC0010E000E080B582B000AF78607868FFF742
:101F0C002DFF00BF0837BD4680BD80B586B000AF41
:101F1C000346B9607A60FB7300237B61FFF742FFD5
:101F2C0078617A68B9687869FFF790FF024697F98B
:101F3C000F3011461846FFF75FFF00BF1837BD463C
:101F4C0080BD80B582B000AF0346FB7197F90730B6
:101F5C001846FFF735FF00BF0837BD4680BD80B57A
:101F6C0082B000AF78607868FFF7A2FF034618468E
:101F7C000837BD4680BD80B485B000AF78600023C3
:101F8C00FB737B6893F82130DBB2022B08D07B68A3
:101F9C0004229A637B68002283F82020012320E02E
:101FAC007B681B681A687B681B6822F00E021A603B
:101FBC007B681B681A687B681B6822F001021A6038
:101FCC007B681A6C7B68DB6B012101FA02F25A60A8
:101FDC007B68012283F821207B68002283F8202073
:101FEC00FB7B18461437BD4680BC704780B584B067
:101FFC0000AF78600023FB737B6893F82130DBB271
:10200C00022B05D07B6804229A630123FB7351E0F9
:10201C007B681B681A687B681B6822F00E021A60CA
:10202C007B681B681A687B681B6822F001021A60C7
:10203C007B681B68224A934229D07B681B68214A23
:10204C00934222D07B681B681F4A93421AD07B684C
:10205C001B681E4A934212D07B681B681C4A934231
:10206C000AD07B681B681B4A934202D14FF4801341
:10207C000EE04FF080730BE04FF4803308E04FF428
:10208C00805305E04FF4807302E0102300E001233D
:10209C00114A53607B68012283F821207B6800225F
:1020AC0083F820207B685B6B002B03D07B685B6B19
:1020BC0078689847FB7B18461037BD4680BD00BF3B
:1020CC00080002401C000240300002404400024064
:1020DC00580002406C0002400000024080B48BB0FB
:1020EC0000AF7860396000237B6200233B6269E1BA
:1020FC0001227B6A02FA03F3FB613B681B68FA69F5
:10210C001340BB61BA69FB699A4240F058813B6845
:10211C005B689A4A93425ED0984A934275D8984A23
:10212C00934258D0964A93426FD8964A934252D0D3
:10213C00944A934269D8944A93424CD0924A93421F
:10214C0063D8924A934246D0904A93425DD8122B60
:10215C002AD8122B59D801A252F823F0E3210008F7
:10216C00BD210008CF210008112200081722000809
:10217C00172200081722000817220008172200084F
:10218C00172200081722000817220008172200083F
:10219C00172200081722000817220008172200082F
:1021AC00C5210008D9210008794A934213D02CE0AC
:1021BC003B68DB683B6229E03B68DB6804333B62CD
:1021CC0024E03B68DB6808333B621FE03B68DB685C
:1021DC000C333B621AE03B689B68002B02D1042352
:1021EC003B6213E03B689B68012B05D108233B62E3
:1021FC007B68FA691A6109E008233B627B68FA691B
:10220C005A6103E000233B6200E000BFBB69FF2B77
:10221C0001D87B6801E07B6804337B61BB69FF2BD1
:10222C0002D87B6A9B0002E07B6A083B9B003B6107
:10223C007B691A680F213B6901FA03F3DB431A40EF
:10224C00396A3B6901FA03F31A437B691A603B68EC
:10225C005B6803F08053002B00F0B1804D4B9B6901
:10226C004C4A43F0010393614A4B9B6903F0010311
:10227C00BB60BB68484A7B6A9B08023352F8233028
:10228C00FB607B6A03F003039B000F2202FA03F34B
:10229C00DB43FA681340FB607B68404A934213D0DF
:1022AC007B683F4A93420DD07B683E4A934207D0ED
:1022BC007B683D4A934201D1032306E0042304E0EA
:1022CC00022302E0012300E000237A6A02F00302F9
:1022DC0092009340FA681343FB602F497B6A9B087A
:1022EC000233FA6841F823203B685B6803F48013DF
:1022FC00002B06D02D4B9A682C49BB6913438B607D
:10230C0006E02A4B9A68BB69DB43284913408B6073
:10231C003B685B6803F40013002B06D0234BDA6890
:10232C002249BB691343CB6006E0204BDA68BB69DA
:10233C00DB431E491340CB603B685B6803F40033FE
:10234C00002B06D0194B5A681849BB6913434B60D4
:10235C0006E0164B5A68BB69DB43144913404B60CB
:10236C003B685B6803F48033002B21D00F4B1A6859
:10237C000E49BB6913430B6021E000BF0000321013
:10238C00000031100000221000002110000012107B
:10239C000000111000100240000001400008014034
:1023AC00000C0140001001400014014000040140E9
:1023BC000B4B1A68BB69DB43094913400B607B6A02
:1023CC0001337B623B681A687B6A22FA03F3002BA9
:1023DC007FF48EAE00BF00BF2C37BD4680BC70476B
:1023EC000004014080B586B000AF78607B68002B9C
:1023FC0001D1012372E27B681B6803F00103002BFF
:10240C0000F08780924B5B6803F00C03042B0CD01C
:10241C008F4B5B6803F00C03082B12D18C4B5B6861
:10242C0003F48033B3F5803F0BD1894B1B6803F465
:10243C000033002B6CD07B685B68002B68D10123C8
:10244C004CE27B685B68B3F5803F06D1804B1B6820
:10245C007F4A43F4803313602EE07B685B68002B6B
:10246C000CD17B4B1B687A4A23F480331360784B76
:10247C001B68774A23F4802313601DE07B685B683C
:10248C00B3F5A02F0CD1724B1B68714A43F4802317
:10249C0013606F4B1B686E4A43F4803313600BE080
:1024AC006B4B1B686A4A23F480331360684B1B68C0
:1024BC00674A23F4802313607B685B68002B13D07E
:1024CC00FEF7CEFD386108E0FEF7CAFD02463B6917
:1024DC00D31A642B01D9032300E25D4B1B6803F470
:1024EC000033002BF0D014E0FEF7BAFD386108E0A1
:1024FC00FEF7B6FD02463B69D31A642B01D90323C0
:10250C00ECE1534B1B6803F40033002BF0D100E0DB
:10251C0000BF7B681B6803F00203002B63D04C4B9D
:10252C005B6803F00C03002B0BD0494B5B6803F08A
:10253C000C03082B1CD1464B5B6803F48033002B37
:10254C0016D1434B1B6803F00203002B05D07B68AC
:10255C001B69012B01D00123C0E13D4B1B6823F00B
:10256C00F8027B685B69DB00394913430B603AE086
:10257C007B681B69002B20D0364B01221A60FEF7BA
:10258C006FFD386108E0FEF76BFD02463B69D31A1C
:10259C00022B01D90323A1E12D4B1B6803F002038D
:1025AC00002BF0D02A4B1B6823F0F8027B685B6988
:1025BC00DB00274913430B6015E0264B00221A6001
:1025CC00FEF74EFD386108E0FEF74AFD02463B6916
:1025DC00D31A022B01D9032380E11D4B1B6803F096
:1025EC000203002BF0D17B681B6803F00803002B5F
:1025FC003AD07B689B69002B19D0174B01221A60CB
:10260C00FEF72EFD386108E0FEF72AFD02463B6915
:10261C00D31A022B01D9032360E10D4B5B6A03F043
:10262C000203002BF0D0012000F0CEFA1CE00A4B84
:10263C0000221A60FEF714FD38610FE0FEF710FD62
:10264C0002463B69D31A022B08D9032346E100BF8B
:10265C00001002400000424280044242924B5B6AEE
:10266C0003F00203002BE9D17B681B6803F0040321
:10267C00002B00F0A6800023FB758B4BDB6903F06D
:10268C008053002B0DD1884BDB69874A43F0805374
:10269C00D361854BDB6903F08053BB60BB680123BE
:1026AC00FB75824B1B6803F48073002B18D17F4B96
:1026BC001B687E4A43F480731360FEF7D1FC3861CB
:1026CC0008E0FEF7CDFC02463B69D31A642B01D916
:1026DC00032303E1754B1B6803F48073002BF0D0CC
:1026EC007B68DB68012B06D16F4B1B6A6E4A43F08B
:1026FC00010313622DE07B68DB68002B0CD16A4B65
:10270C001B6A694A23F001031362674B1B6A664A12
:10271C0023F0040313621CE07B68DB68052B0CD1EF
:10272C00614B1B6A604A43F0040313625E4B1B6AE5
:10273C005D4A43F0010313620BE05B4B1B6A5A4A80
:10274C0023F001031362584B1B6A574A23F004030E
:10275C0013627B68DB68002B15D0FEF781FC3861B7
:10276C000AE0FEF77DFC02463B69D31A41F288323F
:10277C00934201D90323B1E04B4B1B6A03F00203D4
:10278C00002BEED014E0FEF76BFC38610AE0FEF78C
:10279C0067FC02463B69D31A41F28832934201D955
:1027AC0003239BE0404B1B6A03F00203002BEED18A
:1027BC00FB7D012B05D13C4BDB693B4A23F080535D
:1027CC00D3617B68DB69002B00F08780364B5B683C
:1027DC0003F00C03082B61D07B68DB69022B46D11C
:1027EC00334B00221A60FEF73BFC386108E0FEF721
:1027FC0037FC02463B69D31A022B01D903236DE047
:10280C00294B1B6803F00073002BF0D17B681B6A0B
:10281C00B3F5803F08D1244B5B6823F400327B680E
:10282C009B68214913434B601F4B5B6823F4741264
:10283C007B68196A7B685B6A0B431B4913434B60CB
:10284C001B4B01221A60FEF70BFC386108E0FEF707
:10285C0007FC02463B69D31A022B01D903233DE046
:10286C00114B1B6803F00073002BF0D035E0104BBC
:10287C0000221A60FEF7F4FB386108E0FEF7F0FB6B
:10288C0002463B69D31A022B01D9032326E0064BDF
:10289C001B6803F00073002BF0D11EE07B68DB6932
:1028AC00012B07D1012319E00010024000700040F9
:1028BC00600042420B4B5B68FB60FB6803F48032A8
:1028CC007B681B6A9A4206D1FB6803F470127B6822
:1028DC005B6A9A4201D0012300E0002318461837A6
:1028EC00BD4680BD0010024080B584B000AF78605A
:1028FC0039607B68002B01D10123D0E06A4B1B6847
:10290C0003F007033A689A4210D9674B1B6823F00F
:10291C00070265493B6813430B60634B1B6803F06C
:10292C0007033A689A4201D00123B8E07B681B6820
:10293C0003F00203002B20D07B681B6803F0040318
:10294C00002B05D0594B5B68584A43F4E063536045
:10295C007B681B6803F00803002B05D0534B5B68A6
:10296C00524A43F460535360504B5B6823F0F002BF
:10297C007B689B684D4913434B607B681B6803F075
:10298C000103002B40D07B685B68012B07D1474BC0
:10299C001B6803F40033002B15D101237FE07B6807
:1029AC005B68022B07D1414B1B6803F00073002BB3
:1029BC0009D1012373E03D4B1B6803F00203002B8C
:1029CC0001D101236BE0394B5B6823F003027B6878
:1029DC005B68364913434B60FEF742FBF8600AE034
:1029EC00FEF73EFB0246FB68D31A41F28832934253
:1029FC0001D9032353E02D4B5B6803F00C027B6879
:102A0C005B689B009A42EBD1274B1B6803F00703D2
:102A1C003A689A4210D2244B1B6823F007022249D1
:102A2C003B6813430B60204B1B6803F007033A68A9
:102A3C009A4201D0012332E07B681B6803F0040347
:102A4C00002B08D0194B5B6823F4E0627B68DB68D1
:102A5C00164913434B607B681B6803F00803002B7B
:102A6C0009D0124B5B6823F460527B681B69DB0056
:102A7C000E4913434B6000F021F802460B4B5B6888
:102A8C001B0903F00F030A49CB5C22FA03F3094A32
:102A9C001360094B1B681846FEF7A0FA0023184672
:102AAC001037BD4680BD00BF002002400010024020
:102ABC008C430008000000200400002080B487B084
:102ACC0000AF0023FB600023BB6000237B6100236D
:102ADC007B6000233B611E4B5B68FB60FB6803F073
:102AEC000C03042B02D0082B03D027E0194B3B61BD
:102AFC0027E0FB689B0C03F00F03174AD35C7B6049
:102B0C00FB6803F48033002B10D0114B5B685B0C1B
:102B1C0003F00103114AD35CBB607B680D4A03FBD5
:102B2C0002F2BB68B2FBF3F37B6104E07B680C4AF6
:102B3C0002FB03F37B617B693B6102E0054B3B616C
:102B4C0000BF3B6918461C37BD4680BC704700BFB0
:102B5C000010024000127A00A4430008B44300089D
:102B6C0000093D0080B400AF024B1B681846BD46FF
:102B7C0080BC70470000002080B500AFFFF7F2FF6B
:102B8C000246054B5B681B0A03F007030349CB5C49
:102B9C0022FA03F3184680BD001002409C43000843
:102BAC0080B500AFFFF7DEFF0246054B5B68DB0A22
:102BBC0003F007030349CB5C22FA03F3184680BDEC
:102BCC00001002409C43000880B485B000AF7860D0
:102BDC000A4B1B680A4AA2FB03235B0A7A6802FBB6
:102BEC0003F3FB6000BFFB685A1EFA60002BF9D19F
:102BFC0000BF00BF1437BD4680BC704700000020EA
:102C0C00D34D621080B582B000AF78607B68002B2A
:102C1C0001D1012342E07B6893F84130DBB2002BF9
:102C2C0006D17B68002283F840207868FEF792F882
:102C3C007B68242283F841207B681B68DA687B68F8
:102C4C001B6822F40052DA60786800F0B7FD7B68EC
:102C5C001B681A697B681B6822F490421A617B68B6
:102C6C001B685A697B681B6822F02A025A617B68D0
:102C7C001B68DA687B681B6842F40052DA607B6878
:102C8C0000225A647B68202283F841207B68202232
:102C9C0083F842207B6800225A63002318460837C9
:102CAC00BD4680BD80B58AB002AFF860B9603B60AC
:102CBC001346FB8000237B61FB6893F84130DBB249
:102CCC00202B75D1BB68002B02D0FB88002B01D1C7
:102CDC0001236EE0FB6800225A64FB68212283F812
:102CEC004120FEF7BDF97861FB68FA889A84FB688D
:102CFC00FA88DA84FB689B68B3F5805F08D1FB68BF
:102D0C001B69002B04D10023FB61BB68BB6103E092
:102D1C00BB68FB610023BB612EE03B6800937B69C1
:102D2C0000228021F86800F01CFB0346002B05D024
:102D3C00FB68202283F8412003233AE0FB69002B37
:102D4C000BD1BB691B881A46FB681B68C2F30802CF
:102D5C005A60BB690233BB6107E0FB691A78FB68F8
:102D6C001B685A60FB690133FB61FB68DB8C9BB20F
:102D7C00013B9AB2FB68DA84FB68DB8C9BB2002BBC
:102D8C00CBD13B6800937B6900224021F86800F0AE
:102D9C00E8FA0346002B05D0FB68202283F841207B
:102DAC00032306E0FB68202283F84120002300E087
:102DBC00022318462037BD4680BD80B584B000AFD5
:102DCC00F860B9601346FB80FB6893F84230DBB2C5
:102DDC00202B12D1BB68002B02D0FB88002B01D119
:102DEC0001230BE0FB6800221A63FB881A46B968C2
:102DFC00F86800F00FFB034600E00223184610377A
:102E0C00BD4680BD80B5BAB000AF78607B681B68EA
:102E1C001B68C7F8E4307B681B68DB68C7F8E030D8
:102E2C007B681B685B69C7F8DC300023C7F8D830B7
:102E3C000023C7F8D430D7F8E43003F00F03C7F8F9
:102E4C00D830D7F8D830002B0FD1D7F8E43003F0B6
:102E5C002003002B09D0D7F8E03003F02003002B1F
:102E6C0003D0786800F0ECFB5BE2D7F8D830002B8D
:102E7C0000F0DE80D7F8DC3003F00103002B06D124
:102E8C00D7F8E03003F49073002B00F0D180D7F822
:102E9C00E43003F00103002B0BD0D7F8E03003F43F
:102EAC008073002B05D07B685B6C43F001027B6860
:102EBC005A64D7F8E43003F00403002B0BD0D7F896
:102ECC00DC3003F00103002B05D07B685B6C43F016
:102EDC0002027B685A64D7F8E43003F00203002B3B
:102EEC000BD0D7F8DC3003F00103002B05D07B6846
:102EFC005B6C43F004027B685A64D7F8E43003F04F
:102F0C000803002B11D0D7F8E03003F02003002B7E
:102F1C0005D1D7F8DC3003F00103002B05D07B681A
:102F2C005B6C43F008027B685A647B685B6C002B1B
:102F3C0000F0F281D7F8E43003F02003002B08D026
:102F4C00D7F8E03003F02003002B02D0786800F0B3
:102F5C0077FB7B681B685B6903F04003002B14BF95
:102F6C0001230023DBB2C7F8D4307B685B6C03F021
:102F7C000803002B03D1D7F8D430002B4FD078683E
:102F8C0000F081FA7B681B685B6903F04003002B3F
:102F9C0041D07B681B681433C7F89C30D7F89C3041
:102FAC0053E8003FC7F89830D7F8983023F0400327
:102FBC00C7F8D0307B681B681433D7F8D020C7F81B
:102FCC00A820C7F8A430D7F8A410D7F8A82041E857
:102FDC000023C7F8A030D7F8A030002BD9D17B68DC
:102FEC00DB6B002B13D07B68DB6B7E4A5A637B68F0
:102FFC00DB6B1846FEF7FAFF0346002B16D07B68F6
:10300C00DB6B5B6B7A68D26B104698470EE0786886
:10301C0000F093F90AE0786800F08FF906E0786820
:10302C0000F08BF97B6800225A6475E100BF73E1F4
:10303C007B681B6B012B40F04F81D7F8E43003F019
:10304C001003002B00F04881D7F8E03003F0100398
:10305C00002B00F041810023BB607B681B681B6860
:10306C00BB607B681B685B68BB60BB687B681B686C
:10307C005B6903F04003002B00F0B6807B68DB6BD0
:10308C001B685B68A7F8BE30B7F8BE30002B00F0A9
:10309C0045817B689B8DB7F8BE209A4280F03E81BB
:1030AC007B68B7F8BE20DA857B68DB6B9B69202BCD
:1030BC0000F088807B681B680C33C7F88830D7F821
:1030CC00883053E8003FC7F88430D7F8843023F4B5
:1030DC008073C7F8B8307B681B680C33D7F8B820FE
:1030EC00C7F89420C7F89030D7F89010D7F89420F0
:1030FC0041E80023C7F88C30D7F88C30002BD9D19D
:10310C007B681B6814337B677B6F53E8003F3B671E
:10311C003B6F23F00103C7F8B4307B681B68143392
:10312C00D7F8B420C7F88020FB67F96FD7F8802058
:10313C0041E80023BB67BB6F002BE1D17B681B68A8
:10314C0014333B663B6E53E8003FFB65FB6D23F08D
:10315C004003C7F8B0307B681B681433D7F8B02035
:10316C00FA66BB66B96EFA6E41E800237B667B6E2D
:10317C00002BE3D17B68202283F842207B6800225D
:10318C001A637B681B680C33FB64FB6C53E8003FD1
:10319C00BB64BB6C23F01003C7F8AC307B681B68B6
:1031AC000C33D7F8AC20BA657B65796DBA6D41E804
:1031BC0000233B653B6D002BE3D17B68DB6B184632
:1031CC00FEF7D9FE7B6802225A637B689A8D7B6876
:1031DC00DB8D9BB2D31A9BB21946786800F0B6F817
:1031EC009CE000BF573500087B689A8D7B68DB8DAF
:1031FC009BB2D31AA7F8CE307B68DB8D9BB2002B29
:10320C0000F08E80B7F8CE30002B00F089807B6800
:10321C001B680C33BB63BB6B53E8003F7B637B6B5E
:10322C0023F49073C7F8C8307B681B680C33D7F84D
:10323C00C8207A643B64396C7A6C41E80023FB63E8
:10324C00FB6B002BE3D17B681B6814337B627B6ABE
:10325C0053E8003F3B623B6A23F00103C7F8C430DC
:10326C007B681B681433D7F8C4203A63FB62F96A95
:10327C003A6B41E80023BB62BB6A002BE3D17B684D
:10328C00202283F842207B6800221A637B681B682B
:10329C000C333B613B6953E8003FFB60FB6823F058
:1032AC001003C7F8C0307B681B680C33D7F8C020FC
:1032BC00FA61BB61B969FA6941E800237B617B69FA
:1032CC00002BE3D17B6802225A63B7F8CE30194643
:1032DC00786800F03BF823E0D7F8E43003F0800383
:1032EC00002B09D0D7F8E03003F08003002B03D07B
:1032FC00786800F03EF914E0D7F8E43003F04003AE
:10330C00002B0ED0D7F8E03003F04003002B08D090
:10331C00786800F07DF904E000BF02E000BF00E037
:10332C0000BFE837BD4680BD80B483B000AF786085
:10333C0000BF0C37BD4680BC704780B483B000AF73
:10334C00786000BF0C37BD4680BC704780B483B03A
:10335C0000AF78600B467B8000BF0C37BD4680BC4D
:10336C00704780B586B000AFF860B9603B6013461B
:10337C00FB713BE03B6AB3F1FF3F37D0FDF770FECA
:10338C0002463B68D31A3A6A9A4202D33B6A002B34
:10339C0001D103233AE0FB681B68DB6803F00403EC
:1033AC00002B23D0BB68802B20D0BB68402B1DD0BA
:1033BC00FB681B681B6803F00803082B16D100235D
:1033CC007B61FB681B681B687B61FB681B685B6827
:1033DC007B617B69F86800F056F8FB6808225A6438
:1033EC00FB68002283F8402001230FE0FB681B6878
:1033FC001A68BB681340BA689A420CBF01230023B9
:10340C00DBB21A46FB799A42B4D00023184618371F
:10341C00BD4680BD80B485B000AFF860B96013467E
:10342C00FB80FB68BA689A62FB68FA889A85FB682D
:10343C00FA88DA85FB6800225A64FB68222283F83A
:10344C004220FB681B69002B07D0FB681B68DA68FD
:10345C00FB681B6842F48072DA60FB681B685A696F
:10346C00FB681B6842F001025A61FB681B68DA6852
:10347C00FB681B6842F02002DA6000231846143700
:10348C00BD4680BC704780B495B000AF78607B6857
:10349C001B680C337B637B6B53E8003F3B633B6BDC
:1034AC0023F49073FB647B681B680C33FA6C3A64EE
:1034BC00FB63F96B3A6C41E80023BB63BB6B002BDD
:1034CC00E5D17B681B6814333B623B6A53E8003FD1
:1034DC00FB61FB6923F00103BB647B681B6814333D
:1034EC00BA6CFA62BB62B96AFA6A41E800237B6281
:1034FC007B6A002BE5D17B681B6B012B19D17B6898
:10350C001B680C33FB60FB6853E8003FBB60BB6877
:10351C0023F010037B647B681B680C337A6CBA61F4
:10352C007B617969BA6941E800233B613B69002BF7
:10353C00E5D17B68202283F842207B6800221A6345
:10354C0000BF5437BD4680BC704780B584B000AF17
:10355C0078607B685B6AFB60FB680022DA85FB683D
:10356C000022DA84F868FFF7E8FE00BF1037BD468A
:10357C0080BD80B485B000AF78607B6893F8413033
:10358C00DBB2212B3ED17B689B68B3F5805F14D1F5
:10359C007B681B69002B10D17B681B6AFB60FB6886
:1035AC001B881A467B681B68C2F308025A607B684A
:1035BC001B6A9A1C7B681A6208E07B681B6A591CA0
:1035CC007A6811621A787B681B685A607B68DB8C9E
:1035DC009BB2013B9BB27A681946D184002B0FD168
:1035EC007B681B68DA687B681B6822F08002DA60F3
:1035FC007B681B68DA687B681B6842F04002DA6003
:10360C00002300E0022318461437BD4680BC7047E7
:10361C0080B582B000AF78607B681B68DA687B6825
:10362C001B6822F04002DA607B68202283F841207C
:10363C007868FFF779FE002318460837BD4680BD31
:10364C0080B58CB000AF78607B6893F84230DBB209
:10365C00222B40F0AE807B689B68B3F5805F17D15E
:10366C007B681B69002B13D10023FB627B689B6A70
:10367C00BB627B681B685B689BB2C3F308039AB29E
:10368C00BB6A1A807B689B6A9A1C7B689A6226E0EC
:10369C007B689B6AFB620023BB627B689B68B3F50B
:1036AC00805F07D07B689B68002B0AD17B681B6905
:1036BC00002B06D17B681B685B68DAB2FB6A1A7058
:1036CC0008E07B681B685B68DBB203F07F03DAB24F
:1036DC00FB6A1A707B689B6A5A1C7B689A627B68CF
:1036EC00DB8D9BB2013B9BB27A681946D185002BCE
:1036FC005DD17B681B68DA687B681B6822F020024E
:10370C00DA607B681B68DA687B681B6822F480725D
:10371C00DA607B681B685A697B681B6822F00102BF
:10372C005A617B68202283F842207B6800225A630E
:10373C007B681B6B012B35D17B6800221A637B687D
:10374C001B680C337B617B6953E8003F3B613B6931
:10375C0023F010037B627B681B680C337A6A3A6235
:10376C00FB61F9693A6A41E80023BB61BB69002B34
:10377C00E5D17B681B681B6803F01003102B0AD182
:10378C000023FB607B681B681B68FB607B681B6805
:10379C005B68FB60FB687B689B8D19467868FFF75C
:1037AC00D5FD02E07868FCF777FD002302E00023EA
:1037BC0000E0022318463037BD4680BD80B584B08A
:1037CC0000AF78607B681B681B6923F440517B68F1
:1037DC00DA687B681B680A431A617B689A687B68A5
:1037EC001B691A437B685B691343BB607B681B686E
:1037FC00DB6823F4B05323F00C037A681268B968C1
:10380C000B43D3607B681B685B6923F440717B6856
:10381C009A697B681B680A435A617B681B682C4A4F
:10382C00934203D1FFF7BCF9F86002E0FFF7A4F96B
:10383C00F860FA6813469B0013449A001A447B689C
:10384C005B689B00B2FBF3F3224AA2FB03235B09E8
:10385C001901FA6813469B0013449A001A447B68BA
:10386C005B689B00B2FBF3F21A4BA3FB02035B09F0
:10387C00642000FB03F3D31A1B013233154AA2FB5D
:10388C0003235B0903F0F0031944FA6813469B0009
:10389C0013449A001A447B685B689B00B2FBF3F2FA
:1038AC000C4BA3FB02035B09642000FB03F3D31A4C
:1038BC001B013233074AA2FB03235B0903F00F02FF
:1038CC007B681B680A449A6000BF1037BD4680BDF8
:1038DC00003801401F85EB510CB430B5184B0C1E51
:1038EC001D689DB008DA8B234FF0FF302B601DB0A4
:1038FC00BDE8304002B070474FF40273ADF814309D
:10390C004FF000031B930CBF234604F1FF330493C9
:10391C0007934FF6FF7302900690ADF816302846C9
:10392C0021AB209A02A9019300F09CF8431CBCBF68
:10393C008B232B60002CDAD00022029B1A70D6E766
:10394C000C00002003460244934200D1704703F858
:10395C00011BF9E7014B1868704700BF0C000020F1
:10396C0070B500260C4D0D4C641BA410A64209D159
:10397C0000F076FC00260A4D0A4C641BA410A642EB
:10398C0005D170BD55F8043B98470136EEE755F864
:10399C00043B98470136F2E7EC430008EC4300087F
:1039AC00EC430008F0430008704770472DE9F047DE
:1039BC001F468E688246BE420C4690460B682DD838
:1039CC00B1F90C2012F4906F26D06569096905EBEA
:1039DC004505A3EB010905EBD5757B1C4B446D101C
:1039EC009D4238BF1D46530527D5294600F058F98E
:1039FC00064660B34A46216900F0D4FBA38923F440
:103A0C00906343F08003A38126614E4426603E46BA
:103A1C006561A5EB0905A560BE4200D93E4632465C
:103A2C004146206800F086FB0020A3689B1BA36026
:103A3C00236833442360BDE8F0872A4600F04CFB32
:103A4C0006460028E0D15046216900F0B9FB0C2352
:103A5C00CAF80030A3894FF0FF3043F04003A38134
:103A6C00E9E700002DE9F04F98468B8907461B06C5
:103A7C000D4614469DB010D50B6973B9402100F06A
:103A8C000FF92860286130B90C233B604FF0FF30F0
:103A9C001DB0BDE8F08F40236B61002309932023F8
:103AAC008DF8293030234FF00109CDF80C80DFF868
:103ABC0098818DF82A3023469A4613F8012B0AB1C7
:103ACC00252AF9D1BAEB040B0BD05B4622462946CA
:103ADC003846FFF76BFF013000F0A780099A5A4473
:103AEC0009929AF80030002B00F09F8000234FF0D1
:103AFC00FF32CDE905230AF1010A049307938DF8EF
:103B0C0053301A935446052214F8011B4E4800F00A
:103B1C003BFB049AD8B9D00644BF20238DF8533010
:103B2C00110744BF2B238DF853309AF800302A2B01
:103B3C0015D0544600204FF00A0C079A214611F874
:103B4C00013B303B092B4BD9B0B1079214E0A0EBF1
:103B5C00080309FA03F31343A2460493D2E7039B29
:103B6C00191D1B680391002BBBBF5B4242F0020284
:103B7C0007930793B8BF049223782E2B0AD163784E
:103B8C002A2B32D1039B02341A1D1B68039243EA81
:103B9C00E3730593DFF8B4A003225046217800F0BC
:103BAC00F3FA38B14022049BA0EB0A008240134385
:103BBC000134049314F8011B062225488DF82810B3
:103BCC0000F0E2FA002836D0224B1BBB039B0733D4
:103BDC0023F0070308330393099B334409936AE7E3
:103BEC000C4601200CFB0232A8E700234FF00A0C14
:103BFC00194601340593204610F8012B303A092A56
:103C0C0003D9002BC6D00591C4E7044601230CFB55
:103C1C000121F0E703AB00932A4638460E4B04A96A
:103C2C00AFF30080421C0646D6D1AB895B063FF54C
:103C3C002DAF09982CE703AB00932A463846064B68
:103C4C0004A900F01FF9EDE7B6430008BC430008D7
:103C5C00C043000800000000B939000870B50F4ED1
:103C6C000C463168054611B900F07EFA30602146E9
:103C7C00284600F079FA431C03D14FF0FF3420465C
:103C8C0070BDC41C24F00304A042F8D0211A2846AD
:103C9C0000F06AFA0130F2D1EFE700BFA002002079
:103CAC002DE9F843CD1C25F0030508350C2D38BF44
:103CBC000C25002D064601DBA94204D90C233360E8
:103CCC000020BDE8F883DFF8D48000F0F9F9D8F8CB
:103CDC0000301C4644BB29463046FFF7BFFF431C4F
:103CEC00044658D1D8F800402746002F43D1002C69
:103CFC004BD023683946304604EB030900F034FA04
:103D0C00814542D1216830466D1A2946FFF7A6FF3E
:103D1C0001303AD023682B442360D8F800305A681D
:103D2C0062BBC8F800700FE02268521B20D40B2A2B
:103D3C0017D96119A342256018BF5960636808BF81
:103D4C00C8F8001062514B60304600F0BFF904F126
:103D5C000B00231D20F00700C21A1CBF1B1AA35016
:103D6C00AFE76268A3420CBFC8F800205A60EBE7CB
:103D7C0023466468AEE73C467F68B6E71A465B6844
:103D8C00A342FBD100235360DEE70C2330463360A3
:103D9C0000F09CF994E70560D6E700BFA402002070
:103DAC002DE9F047164698468A680B6907469342F8
:103DBC00B8BF1346336091F843200C46DDF82090D1
:103DCC000AB1013333602368990642BF336802336A
:103DDC003360256815F0060506D104F1190AE3686D
:103DEC0032689B1AAB422BDC94F843302268003BC0
:103DFC0018BF0123920630D44146384604F14302E1
:103E0C00C847013023D02368226903F00603042B32
:103E1C0014BF002533684FF0000608BFE56804F1B5
:103E2C001A0408BFED1A54F8123C08BF25EAE575D0
:103E3C009342C4BF9B1AED18B5421AD1002008E07A
:103E4C000123524641463846C847013003D14FF052
:103E5C00FF30BDE8F0870135C1E73020E11881F86B
:103E6C0043005A1C94F845102244023382F8431044
:103E7C00C2E70123224641463846C8470130E6D006
:103E8C000136D9E72DE9FF470F7E9146782F804602
:103E9C000C469A460C9E01F1430207D8622F0AD8B1
:103EAC00002F00F0D180582F00F0B88004F14206AA
:103EBC0084F842703AE0A7F16303152BF6D801A100
:103ECC0051F823F0293F00083D3F0008B93E000897
:103EDC00B93E0008B93E0008B93E00083D3F000855
:103EEC00B93E0008B93E0008B93E0008B93E0008CA
:103EFC003B400008673F0008F53F0008B93E00084A
:103F0C00B93E00085D400008B93E0008673F000854
:103F1C00B93E0008B93E0008FD3F000833681A1D81
:103F2C001B68326004F1420684F8423001239CE0A5
:103F3C0033682068191D3160060601D51D6803E041
:103F4C004506FBD5B3F90050002D03DA2D236D4245
:103F5C0084F843300A23584811E021683368080676
:103F6C0053F8045B02D4490648BFADB26F2F3360DF
:103F7C0014BF0A2308235048002184F843106668B4
:103F8C00002EA66005DB21682E4321F00401216080
:103F9C004BD01646B5FBF3F103FB1157C75D06F882
:103FAC00017D2F46BB420D46F4D9082B0BD123685B
:103FBC00DF0708D5236961689942DEBF302306F814
:103FCC00013C06F1FF36921B22614B4621464046CE
:103FDC00CDF800A003AAFFF7E3FE01304AD14FF061
:103FEC00FF3004B0BDE8F087236843F02003236062
:103FFC007827324884F84570236831681F0651F8D9
:10400C00045B02D45F0648BFADB23160D90744BF30
:10401C0043F0200323601DB11023ADE72648E9E7E8
:10402C00236823F020032360F6E71646BDE73368C8
:10403C002568181D616930602E061B6801D5196052
:10404C0002E06806FBD51980002316462361BCE705
:10405C00336800211A1D32601E686268304600F019
:10406C0093F808B1801B606063682361002384F8B7
:10407C004330AAE73246494640462369D0470130CF
:10408C00ADD023689B0713D4E068039B9842B8BF5C
:10409C001846A6E70123324649464046D047013030
:1040AC009DD00135E36803995B1AAB42F2DCEBE778
:1040BC00002504F11906F5E7C7430008D8430008AA
:1040CC000148FFF771BC00BF9C0200200148FFF7BC
:1040DC006CBC00BF9C0200202DE9F0410746144641
:1040EC000D4621B91146BDE8F041FFF7D9BD2AB9FB
:1040FC0000F066F825462846BDE8F08100F0A8F8E7
:10410C008442064602D8B4EB500FF4D82146384608
:10411C00FFF7C6FD804608B94546ECE7B442224697
:10412C00294628BF324600F03DF82946384600F0B3
:10413C0047F8F1E7884210B501EB020402D984423A
:10414C00234607D8431EA14208D011F8012B03F8CF
:10415C00012FF8E7014602448A4200D110BD13F842
:10416C00014D02F8014DF7E738B50023054D044623
:10417C0008462B60FCF7BAFE431C02D12B6803B136
:10418C00236038BDA8020020034610B5C9B2024412
:10419C009342184601D1002003E0047801338C428D
:1041AC00F6D110BD0A44914200F1FF3300D17047A3
:1041BC0010B511F8014B914203F8014FF9D110BD24
:1041CC0038B50546002940D051F8043C0C1F002B93
:1041DC00B8BFE418FFF774FF1C4A136833B9636067
:1041EC0014602846BDE83840FFF770BFA34208D9D9
:1041FC00206821188B4201BF19685B68091821607F
:10420C00EDE71A465B680BB1A342FAD91168501856
:10421C00A0420BD120680144501883421160E0D1B8
:10422C0018685B68084410605360DAE702D90C2305
:10423C002B60D6E7206821188B4201BF19685B6898
:10424C000918216063605460CBE738BDA4020020DC
:10425C0051F8043C181F002BBCBF0B58C0187047FA
:10426C00F8B500BFF8BC08BC9E467047F8B500BF57
:08427C00F8BC08BC9E46704727
:104284005B5258204F4B5D204865617274626561D2
:1042940074202830783731293A20436F756E74655D
:1042A400723D25642C20466C6167733D307825305F
:1042B40032580D0A000000005B5258204F4B5D201D
:1042C40053656E736F72202830783431293A205246
:1042D40061696E3D256425252C2057617465723D06
:1042E400256425250D0A00005B5258204F4B5D20A4
:1042F400537461747573202830783430293A20411E
:1043040063743D3078253032582C205769706572BB
:104314003D25642C204865616C74683D25640D0A54
:10432400000000005B5258204F4B5D204576656EBF
:104334007420537461747573202830783535293AA4
:104344002057697065723D25642C205475726E3D4A
:1043540025640D0A000000005B5258204F4B5D207D
:104364004661756C74202830784545293A20536598
:104374007665726974793D25642C204454433D303C
:1043840078253034580D0A000000000000000000B9
:1043940001020304060708090000000001020304E7
:1043A40002030405060708090A0B0C0D0E0F101072
:1043B4000102232D302B2000686C4C006566674594
:1043C4004647003031323334353637383941424389
:1043D400444546003031323334353637383961623A
:0843E40063646566000000003F
:0443EC003101000893
:0443F0000D010008B3
:1043F40000127A00100000000100000010000020EC
:104404000000000064010020CC01002034020020E0
:104414000000000000000000000000000000000098
:104424000000000000000000000000000000000088
:104434000000000000000000000000000000000078
:0C4444000000000000000000000000006C
:0400000508000F716F
:00000001FF
